:100000000EC028C027C026C025C024C023C022C0DF
:1000100021C020C01FC01EC01DC01DC040C0112473
:100020001FBECFE5D2E0DEBFCDBF10E0A0E6B0E05E
:10003000E4E8F1E002C005900D92A236B107D9F7CD
:1000400020E0A2E6B0E001C01D92A536B207E1F7BC
:100050007DD096C0D5CF1F920F920FB60F9211246C
:100060008F938EB1B8981092600086B380EF8EB9EE
:100070006E9A8F910F900FBE0F901F90189596E07B
:10008000909360001092630080936400C29AC09ABB
:10009000BA9AB89888EA8DB980E78EB908951F9208
:1000A0000F920FB60F9211242F933F934F935F93AC
:1000B0006F937F938F939F93AF93BF93EF93FF9330
:1000C000809160008330B9F198F48823E1F0FF91CA
:1000D000EF91BF91AF919F918F917F916F915F91C0
:1000E0004F913F912F910F900FBE0F901F90189539
:1000F0008530C1F0873059F780B3882399F080911B
:100100006400BDDFE4CF80B390B386952091640096
:10011000281305C084E090FD85E0809360008FE0A7
:100120008EB9D5CF83E08093600085E58FB9B89A0A
:100130008EB18067F5CF81E08093630087E0809384
:100140006000B8981FB88EB18E67EACF87B382611E
:1001500087BB81E094DF7894F894809163001092DB
:10016000630078948130C1F7C19A2FEF80E792E065
:10017000215080409040E1F700C00000C198ECCFD2
:04018000F894FFCF21
:02018400060073
:00000001FF
