:100000000EC015C014C013C012C011C010C00FC064
:100010000EC00DC00CC00BC00AC009C008C011241E
:100020001FBECFE5D2E0DEBFCDBF02D012C2E8CF07
:1000300087B3816187BBC09A80B78E6080BFEE2492
:10004000E394F12C90E4892E92E4992E9FE0A92E5E
:10005000B12C11E0D0E1CEE06FB500B770E090E0D8
:1000600080E043D12B013C010F70970102C0220FA9
:10007000331F0A95E2F7032E000C440B550BC50104
:10008000B40126D0CA01B90130D19B01AC0160E0B6
:1000900070E080E89FE3BFD09B01AC0160E070E0BE
:1000A00080E89FE3B8D020E030E040E85FE34ED046
:1000B0009B01AC01C301B201A4D187FDCDCF88B3B0
:1000C000812788BB88B38D2788BB1FBCC0BFC4CF26
:1000D000052E97FB16F400940FD057FD05D014D0D1
:1000E00007FC02D046F408C0509540953095219504
:1000F0003F4F4F4F5F4F0895909580957095619554
:100100007F4F8F4F9F4F0895A1E21A2EAA1BBB1B52
:10011000FD010DC0AA1FBB1FEE1FFF1FA217B307D3
:10012000E407F50720F0A21BB30BE40BF50B661FE9
:10013000771F881F991F1A9469F7609570958095AD
:1001400090959B01AC01BD01CF0108955058BB278C
:10015000AA270ED01CC10DD130F012D120F031F4FD
:100160009F3F11F41EF402C10EF4E095E7FBF8C0C6
:10017000E92F1ED180F3BA1762077307840795072A
:1001800018F071F49EF536C10EF4E0950B2EBA2FDF
:10019000A02D0B01B90190010C01CA01A00111248D
:1001A000FF27591B99F0593F50F4503E68F11A1639
:1001B000F040A22F232F342F4427585FF3CF4695CA
:1001C00037952795A795F0405395C9F77EF41F16EC
:1001D000BA0B620B730B840BBAF09150A1F0FF0FB6
:1001E000BB1F661F771F881FC2F70EC0BA0F621FA2
:1001F000731F841F48F4879577956795B795F79592
:100200009E3F08F0B3CF9395880F08F09927EE0F23
:100210009795879508950CD0BAC0B2D040F0A9D078
:1002200030F021F45F3F19F09BC05111E4C09EC033
:10023000BFD098F39923C9F35523B1F3951B550B00
:10024000BB27AA2762177307840738F09F5F5F4FA9
:10025000220F331F441FAA1FA9F333D00E2E3AF0EA
:10026000E0E830D091505040E695001CCAF729D004
:10027000FE2F27D0660F771F881FBB1F2617370753
:100280004807AB07B0E809F0BB0B802DBF01FF2783
:1002900093585F4F2AF09E3F510568F061C0ABC094
:1002A0005F3FECF3983EDCF3869577956795B795BD
:1002B000F7959F5FC9F7880F911D9695879597F9D8
:1002C0000895E1E0660F771F881FBB1F6217730751
:1002D0008407BA0720F0621B730B840BBA0BEE1F66
:1002E00088F7E0950895E89409C097FB3EF490954F
:1002F0008095709561957F4F8F4F9F4F9923A9F0FF
:10030000F92F96E9BB279395F6958795779567958D
:10031000B795F111F8CFFAF4BB0F11F460FF1BC0D1
:100320006F5F7F4F8F4F9F4F16C0882311F096E964
:1003300011C0772321F09EE8872F762F05C0662312
:1003400071F096E8862F70E060E02AF09A95660FCB
:10035000771F881FDAF7880F9695879597F9089584
:1003600097F99F6780E870E060E008959FEF80EC68
:10037000089500240A94161617061806090608950B
:1003800000240A9412161306140605060895092E71
:100390000394000C11F4882352F0BB0F40F4BF2BE0
:1003A00011F460FF04C06F5F7F4F8F4F9F4F089520
:1003B00057FD9058440F551F59F05F3F71F0479516
:1003C000880F97FB991F61F09F3F79F087950895FB
:1003D000121613061406551FF2CF4695F1DF08C01A
:1003E000161617061806991FF1CF86957105610537
:1003F00008940895E894BB2766277727CB0197F9DF
:10040000089503D008F48FEF0895990F0008550F51
:10041000AA0BE0E8FEEF16161706E807F907C0F08A
:1004200012161306E407F50798F0621B730B840B92
:10043000950B39F40A2661F0232B242B252B21F46C
:1004400008950A2609F4A140A6958FEF811D811D0C
:060450000895F894FFCFAF
:00000001FF
