:100000000EC028C032C026C025C024C023C022C0D4
:1000100073C020C01FC01EC01DC01CC01BC0112447
:100020001FBECFE5D2E0DEBFCDBF10E0A0E6B0E05E
:10003000ECE8F1E002C005900D92A236B107D9F7C5
:1000400020E0A2E6B0E001C01D92A636B207E1F7BB
:100050006AD09AC0D5CF88B398E0892788BB089525
:1000600088B390E1892788BB08951F920F920FB63D
:100070000F9211242F933F934F935F936F937F932E
:100080008F939F9326B380916000282786B3809337
:10009000600083E088BB86B3482F417050E04095F4
:1000A0005095622F617070E046235723452B31F045
:1000B0008BE290E0909365008093640086B3827039
:1000C00090E080959095227030E082239323892BD5
:1000D00031F080E390E090936500809364009F91FD
:1000E0008F917F916F915F914F913F912F910F90E1
:1000F0000FBE0F901F9018951F920F920FB60F9280
:1001000011248F939F9385B194B1892798278927CC
:1001100090936300809362009F918F910F900FBE28
:100120000F901F9018958BE290E09093650080935C
:10013000640087B3886187BBB898B99888B3836037
:1001400088BB8BB780628BBF85B3836085BB389AD1
:1001500086B1886A86B9A29A7894369AE09164004A
:10016000F0916500099590E080E020916200309167
:1001700063008217930790F7E9EFF0E03197F1F70A
:0C01800000C000000296F1CFF894FFCF01
:02018C00FF0072
:00000001FF
