:100000000EC028C028C026C025C024C023C022C0DE
:1000100021C020C01FC01EC01DC01CC01BC0112499
:100020001FBECFE5D2E0DEBFCDBF10E0A0E6B0E05E
:10003000E0E4F1E002C005900D92A436B107D9F7D3
:1000400020E0A4E6B0E001C01D92A736B207E1F7B8
:100050004DD074C0D5CF1F920F920FB60F921124BE
:100060002F933F934F935F938F939F9326B38091EA
:100070006200282796B39093620023FF13C093FF7A
:1000800011C080916400409160005091610094FF24
:1000900023C04F5F5F4F50936100409360008160C9
:1000A0008093640021FF0DC08091640091FF1CC00B
:1000B00025E030E0309361002093600084608093FD
:1000C00064009F918F915F914F913F912F910F907D
:1000D0000FBE0F901F901895415051095093610029
:1000E000409360008260DCCF8860E9CF87B3856091
:1000F00087BB88B38A7F88BBB998BB98BC9888B304
:100100008A6188BB8BB780628BBF85B38A6185BBF0
:1001100080E28ABF789480916000909161000B9793
:100120000CF0C09A809160009091610097FDC29A96
:1001300088B38A7F88BB10926400EDCFF894FFCF1C
:040140000500FF00B7
:00000001FF
