:100000000EC020C01FC01EC01DC01CC01BC01AC017
:1000100019C018C018C016C015C014C013C01124D0
:100020001FBECFE5D2E0DEBFCDBF10E0A0E6B0E05E
:10003000E6EDF0E002C005900D92A236B107D9F7C7
:1000400017D047C0DDCF1F920F920FB60F92112429
:100050008F939F938091610090916000890F8093AE
:1000600060009F918F910F900FBE0F901F90189579
:1000700087B3816187BB8CB580658CBD80B781609B
:1000800080BF8FEF8DBD8EBD1BBC80B7806580BFEC
:100090008AB582608ABD83B7856083BF89B7806176
:1000A00089BF19BC789491E0809160008F3F51F432
:1000B00080936100809160008EBD8091600080958A
:1000C0008BBDF2CF809160008111F4CF90936100DD
:0600D000F1CFF894FFCF10
:0200D600010126
:00000001FF
