:100000000EC01DC01CC01BC01AC019C018C017C02C
:1000100016C015C015C013C012C011C010C01124E5
:100020001FBECFE5D2E0DEBFCDBF20E0A0E6B0E04E
:1000300001C01D92A236B207E1F719D03AC0E0CF55
:100040001F920F920FB60F9211248F939F9380915E
:100050006000909161000196909361008093600030
:100060009F918F910F900FBE0F901F90189587B39F
:10007000816187BBC09A89B7806189BF82E08ABDF0
:1000800083B7856083BF789483EF89BD21E090E1D9
:100090004091600050916100452BD1F388B38227D5
:1000A00088BB88B3892788BB1092610010926000DA
:0600B000EFCFF894FFCF32
:00000001FF
