:100000000EC029C027C026C025C024C023C022C0DE
:100010003CC020C01FC01EC01DC01CC01BC011247E
:100020001FBECFE5D2E0DEBFCDBF10E0A0E6B0E05E
:10003000ECE7F3E002C005900D92A636B107D9F7C0
:1000400020E0A6E6B0E001C01D92AC36B207E1F7B1
:1000500038D092C1D5CF1F920F920FB60F921124B4
:100060008F939F9380916B0090916A0090936B00A7
:100070009091690090936A00809369009F918F919D
:100080000F900FBE0F901F9018951F920F920FB6F2
:100090000F9211248F9384B1809366008F910F90FB
:1000A0000FBE0F901F9018958AB5836A8ABD83B7DB
:1000B000816083BF80B7816080BF8CB580658CBD57
:1000C000089586B1886886B986B1836086B987B19C
:1000D0008F6087B93F9A7894369A3699FECF80918F
:1000E000660090E0E7D03798E1D00FEF10E0B8015C
:1000F0006CD0C82FE82EDAD0B80167D0D82FF82EF0
:10010000D5D0B80162D0082F1C2F1695DD0F8C1B9F
:10011000C82F87B3876187BBC29A85B7836085BFC5
:1001200084E88DBDC1DF78948AE0D82E8091670085
:100130008F5F809367006D2D3CD0911113C0CC244C
:10014000C394CD0EBB24B394BC0EB0D0A12EA81A7C
:1001500013E01E0DD3E0DF0DA9D0C02FC80F0A2D6C
:10016000FB2CEC2CE9BCF8BC0BBD83EC99E00197AF
:10017000F1F700C0000019BC18BC1BBC89EF90E06F
:100180000197F1F700C00000689A19BDD8BDCBBD3A
:1001900083EC99E00197F1F700C0000019BC18BC8E
:1001A0001BBC89EF90E00197F1F700C00000689A4E
:1001B000BDCF991B79E004C0991F961708F0961BD4
:1001C000881F7A95C9F78095089597FB072E16F436
:1001D000009406D077FD08D00BD007FC05D03EF484
:1001E000909581959F4F0895709561957F4F0895E3
:1001F000AA1BBB1B51E107C0AA1FBB1FA617B7074D
:1002000010F0A61BB70B881F991F5A95A9F7809568
:100210009095BC01CD0108958F929F92AF92BF92AD
:10022000CF92DF92EF92FF92CF93DF93EC01688140
:1002300079818A819B81611571058105910521F480
:1002400064E279ED8BE597E02DE133EF41E050E09A
:1002500055D049015A0127EA31E440E050E035D059
:100260006B017C012CEE34EF4FEF5FEFC501B40161
:100270002CD0DC01CB018C0D9D1DAE1DBF1DB7FF29
:1002800003C00197A109B04888839983AA83BB83DF
:100290009F77DF91CF91FF90EF90DF90CF90BF904D
:1002A000AF909F908F900895B7DF089582E690E019
:1002B000B3DF0895B0E0A0E0809362009093630004
:1002C000A0936400B09365000895EE27FF27AA2746
:1002D000BB2708C0A20FB31FE41FF51F220F331F57
:1002E000441F551F969587957795679598F37040AD
:1002F000A9F7009799F7BD01CF010895052E97FB47
:1003000016F400940FD057FD05D014D007FC02D08E
:1003100046F408C050954095309521953F4F4F4F7A
:100320005F4F089590958095709561957F4F8F4FA1
:100330009F4F0895A1E21A2EAA1BBB1BFD010DC001
:10034000AA1FBB1FEE1FFF1FA217B307E407F50785
:1003500020F0A21BB30BE40BF50B661F771F881F61
:10036000991F1A9469F760957095809590959B01F7
:0C037000AC01BD01CF010895F894FFCF4F
:06037C0037C8010000007B
:00000001FF
