:100000000EC025C01CC037C01AC019C018C017C008
:1000100016C015C014C013C012C011C010C01124E6
:100020001FBECFE5D2E0DEBFCDBF20E0A0E6B0E04E
:1000300001C01D92A436B207E1F75CD07CC0E0CFCE
:1000400085B7836085BF8BB780648BBF08951F928F
:100050000F920FB60F9211248F93F8941FBC8091CA
:1000600061008F5F8093610078948F910F900FBE35
:100070000F901F9018951F920F920FB60F92112498
:100080008F939F9380916000811115C091E09093B0
:1000900060008DE08DBD8EBD88B3892788BB8091BF
:1000A00061008150809361009F918F910F900FBEEE
:1000B0000F901F90189588B391E0EFCF85B7877E9A
:1000C000806185BF379885B7806285BF8895089520
:1000D000809164009091650021E030E0009711F07C
:1000E00030E020E03093650020936400892B09F014
:1000F000E5CF0895EDDFBA98B89AC098A1DF1FBC8C
:1001000080B7806880BF80B78E6080BF8FEF8DBD65
:100110008EBD89B7806489BF78948FEF909161001C
:100120009111FCCFC09810926000F8948DBD8EBDE7
:0A0130001FBC7894F3CFF894FFCFC2
:040000050080006314
:00000001FF
