:1000000009C017C015C014C013C012C011C010C061
:100010000FC00EC011241FBECFE9CDBF20E0A0E667
:10002000B0E001C01D92A436B207E1F7EDD016C1D1
:10003000E7CF1F920F920FB60F9211248F939F93C9
:1000400081E08093600090916100911180E0809345
:1000500061009F918F910F900FBE0F901F90189588
:10006000BB9A98B3987098BBF8948230E1F030F462
:10007000882371F0813091F0789408958430F1F004
:10008000C0F08530C9F787B3816187BBBA981AC0C1
:1000900087B3856087BBBC98C29AEECF87B3846173
:1000A00087BBB898F9CF87B3816187BBBA98C09AEC
:1000B000E3CF87B3856087BBBC98F9CF87B38461F2
:1000C00087BBB898C49AD8CF482F50E09A0193E0E4
:1000D000359527959A95E1F7BA0136E075956795BC
:1000E0003A95E1F726275595479555954795242745
:1000F0002795222727958695822B089568D0B99851
:10010000BB9A8BB780648BBF85B7826085BF7894BC
:100110000895F89480916000882341F08FEB9DE56D
:100120000197F1F700C00000109260007894809170
:100130006100811114C018BA8091620090E00196AC
:1001400066E070E064D0809362008091620088DF96
:100150008FEB92E10197F1F700C00000089588E06D
:1001600088BB1092630080916300909162009817A1
:1001700008F4089575DF809163008F5F80936300BA
:10018000F2CFCF93DF93CDB7DD2785E590E0FC017B
:100190008081877E282F206185E590E0FC01208307
:1001A00086E290E0FC01208186E290E02F77FC015E
:1001B000208385E590E0FC01208185E590E02062C8
:1001C000FC01208388950000DF91CF910895CF93A3
:1001D000DF93CDB7DD27809164009091650021E029
:1001E000892B09F020E0822F90E0909365008093A6
:1001F00064008091640090916500892B09F4C1DF4F
:100200000000DF91CF91089579DF83DFFECF97FB68
:10021000072E16F4009406D077FD08D00BD007FC0B
:1002200005D03EF4909581959F4F08957095619506
:100230007F4F0895AA1BBB1B51E107C0AA1FBB1F1C
:10024000A617B70710F0A61BB70B881F991F5A9562
:10025000A9F780959095BC01CD010895F894FFCF42
:00000001FF
