:100000000EC01DC01DC01BC01AC019C018C017C02B
:1000100016C015C014C013C012C011C010C01124E6
:100020001FBECFE5D2E0DEBFCDBF20E0A0E6B0E04E
:1000300001C01D92A136B207E1F712D031C0E0CF66
:100040001F920F920FB60F9211248F9386B3867072
:10005000809360008F910F900FBE0F901F901895A6
:1000600087B3816187BB87B3897F87BB88B386608D
:1000700088BB88B3816188BB85B3866085BB8BB73D
:1000800080628BBF78948091600081FD02C0C49A29
:10009000C0988091600082FDF6CFC498C09AF3CFDB
:0400A000F894FFCF02
:00000001FF
