:100000000EC015C014C013C012C011C010C00FC064
:100010000EC00DC00CC00BC00AC009C008C011241E
:100020001FBECFE5D2E0DEBFCDBF3CD04DC0E8CF94
:1000300087BB98BB0895CF92DF92EF92FF920F9308
:100040001F93CF93DF937B01D0E0C0E0CC24C39417
:10005000D12C082F10E096010C2E02C0220F331F66
:100060000A94E2F7202331230C2E02C03595279500
:100070000A94E2F72130310541F4FE01EE0FFF1F33
:10008000EE0DFF1D80819181D3DF2196C630D10511
:1000900011F7DF91CF911F910F91FF90EF90DF90BB
:1000A000CF900895CF93DF93CDB7DEB72E970FB6DD
:1000B000F894DEBF0FBECDBF84EF8D8784E08E87BE
:0C00C0008D859E85B5DFFCCFF894FFCF46
:00000001FF
