:100000000EC01DC01CC01BC01BC019C018C017C02B
:1000100016C015C014C013C012C011C010C01124E6
:100020001FBECFE5D2E0DEBFCDBF20E0A0E6B0E04E
:1000300001C01D92A136B207E1F714D01FC0E0CF76
:100040001F920F920FB60F9211248F939F9388B334
:1000500091E1892788BB9F918F910F900FBE0F90E0
:100060001F90189587B3816187BBC09A89B7846058
:1000700089BF789480B78D6080BFFFCFF894FFCFA1
:00000001FF
