:100000000EC028C01CC035C01AC019C018C017C007
:1000100016C015C014C013C012C011C010C01124E6
:100020001FBECFE5D2E0DEBFCDBF20E0A0E6B0E04E
:1000300001C01D92A236B207E1F746D06CC0E0CFF6
:1000400085B7836085BF8BB780648BBF80B780BF67
:1000500019BE08951F920F920FB60F9211248F931D
:1000600081E0809361008F910F900FBE0F901F90E1
:1000700018951F920F920FB60F9211248F9381E063
:10008000809360008F910F900FBE0F901F90189576
:1000900085B7877E806185BF379885B7806285BFC9
:1000A00088950895809162009091630021E030E08E
:1000B000009711F030E020E030936300209362005D
:1000C000892B09F0E5CF0895EDDFBA98B89AC09A68
:1000D000B7DF7894CFEF80916100882399F015BE47
:1000E0008BB78F7B8BBF109261001FBCC09880B70D
:1000F000806880BF80B78E6080BFCDBDCEBD89B720
:10010000806489BF80916000882329F31092600089
:0A011000C09A96DFE0CFF894FFCF0D
:040000050080006116
:00000001FF
