:100000000EC020C020C01EC01DC01CC01BC01AC016
:1000100019C018C017C016C015C014C013C01124D1
:100020001FBECFE5D2E0DEBFCDBF10E0A0E6B0E05E
:10003000EEE0F1E002C005900D92A236B107D9F7CB
:100040004DD063C0DDCF1F920F920FB60F921124D7
:100050002F933F934F935F936F937F938F939F93D0
:1000600026B380916100282730E0B90193E07595AF
:1000700067959A95E1F796B396B390E0AC0173E07B
:10008000559547957A95E1F7417056B350936100C5
:1000900054E0959587955A95E1F7817074E0359510
:1000A00027957A95E1F7822329F0809160008F5F90
:1000B00080936000462329F08091600081508093F6
:1000C00060009F918F917F916F915F914F913F91D0
:1000D0002F910F900FBE0F901F90189587B38360DC
:1000E00087BBBB98BC9888B3886188BB8BB780629C
:1000F0008BBF85B3886185BB7894809160008A301E
:0E01000010F4C09AFACFC098F8CFF894FFCF51
:02010E0009FFE7
:00000001FF
