:100000000EC028C027C026C025C024C023C022C0DF
:1000100021C020C020C02EC01DC01CC01BC0112488
:100020001FBECFE5D2E0DEBFCDBF10E0A0E6B0E05E
:10003000E6EEF0E002C005900D92A236B107D9F7C6
:1000400020E0A2E6B0E001C01D92A436B207E1F7BD
:1000500020D047C0D5CF1F920F920FB60F92112418
:100060008F9381E0809363008F910F900FBE0F906C
:100070001F9018951F920F920FB60F9211248F9315
:1000800081E0809362008F910F900FBE0F901F90C0
:10009000189587B3836087BB87B387BBC09A8AB53F
:1000A00082658ABD83B7856083BF89B7886189BF50
:1000B000789488EC89BD84E688BD22E09091630045
:1000C000913029F488B3892788BB1092630080910E
:1000D0006200813099F788B3822788BB1092620052
:0600E000EDCFF894FFCF04
:0200E600FF0019
:00000001FF
